{
  "_format": "hh3-artifact-1",
  "contractName": "PriceOracle",
  "sourceName": "contracts/PriceOracle.sol",
  "abi": [
    {
      "inputs": [
        {
          "internalType": "address",
          "name": "_ethUsdPriceFeed",
          "type": "address"
        }
      ],
      "stateMutability": "nonpayable",
      "type": "constructor"
    },
    {
      "inputs": [
        {
          "internalType": "address",
          "name": "owner",
          "type": "address"
        }
      ],
      "name": "OwnableInvalidOwner",
      "type": "error"
    },
    {
      "inputs": [
        {
          "internalType": "address",
          "name": "account",
          "type": "address"
        }
      ],
      "name": "OwnableUnauthorizedAccount",
      "type": "error"
    },
    {
      "anonymous": false,
      "inputs": [
        {
          "indexed": true,
          "internalType": "address",
          "name": "priceFeed",
          "type": "address"
        }
      ],
      "name": "EthUsdPriceFeedUpdated",
      "type": "event"
    },
    {
      "anonymous": false,
      "inputs": [
        {
          "indexed": true,
          "internalType": "address",
          "name": "previousOwner",
          "type": "address"
        },
        {
          "indexed": true,
          "internalType": "address",
          "name": "newOwner",
          "type": "address"
        }
      ],
      "name": "OwnershipTransferred",
      "type": "event"
    },
    {
      "anonymous": false,
      "inputs": [
        {
          "indexed": true,
          "internalType": "address",
          "name": "token",
          "type": "address"
        },
        {
          "indexed": true,
          "internalType": "address",
          "name": "priceFeed",
          "type": "address"
        }
      ],
      "name": "PriceFeedAdded",
      "type": "event"
    },
    {
      "anonymous": false,
      "inputs": [
        {
          "indexed": true,
          "internalType": "address",
          "name": "token",
          "type": "address"
        }
      ],
      "name": "PriceFeedRemoved",
      "type": "event"
    },
    {
      "inputs": [],
      "name": "ETH_DECIMALS",
      "outputs": [
        {
          "internalType": "uint8",
          "name": "",
          "type": "uint8"
        }
      ],
      "stateMutability": "view",
      "type": "function"
    },
    {
      "inputs": [],
      "name": "USD_DECIMALS",
      "outputs": [
        {
          "internalType": "uint8",
          "name": "",
          "type": "uint8"
        }
      ],
      "stateMutability": "view",
      "type": "function"
    },
    {
      "inputs": [
        {
          "internalType": "address",
          "name": "token",
          "type": "address"
        },
        {
          "internalType": "address",
          "name": "priceFeed",
          "type": "address"
        }
      ],
      "name": "addPriceFeed",
      "outputs": [],
      "stateMutability": "nonpayable",
      "type": "function"
    },
    {
      "inputs": [
        {
          "internalType": "uint256",
          "name": "bid1Amount",
          "type": "uint256"
        },
        {
          "internalType": "address",
          "name": "bid1Token",
          "type": "address"
        },
        {
          "internalType": "uint8",
          "name": "bid1Decimals",
          "type": "uint8"
        },
        {
          "internalType": "uint256",
          "name": "bid2Amount",
          "type": "uint256"
        },
        {
          "internalType": "address",
          "name": "bid2Token",
          "type": "address"
        },
        {
          "internalType": "uint8",
          "name": "bid2Decimals",
          "type": "uint8"
        }
      ],
      "name": "compareBids",
      "outputs": [
        {
          "internalType": "int8",
          "name": "comparison",
          "type": "int8"
        }
      ],
      "stateMutability": "view",
      "type": "function"
    },
    {
      "inputs": [
        {
          "internalType": "uint256",
          "name": "ethAmount",
          "type": "uint256"
        }
      ],
      "name": "ethToUsd",
      "outputs": [
        {
          "internalType": "uint256",
          "name": "usdValue",
          "type": "uint256"
        }
      ],
      "stateMutability": "view",
      "type": "function"
    },
    {
      "inputs": [],
      "name": "ethUsdPriceFeed",
      "outputs": [
        {
          "internalType": "contract AggregatorV3Interface",
          "name": "",
          "type": "address"
        }
      ],
      "stateMutability": "view",
      "type": "function"
    },
    {
      "inputs": [],
      "name": "getEthPrice",
      "outputs": [
        {
          "internalType": "uint256",
          "name": "price",
          "type": "uint256"
        },
        {
          "internalType": "uint256",
          "name": "timestamp",
          "type": "uint256"
        }
      ],
      "stateMutability": "view",
      "type": "function"
    },
    {
      "inputs": [],
      "name": "getEthPriceDecimals",
      "outputs": [
        {
          "internalType": "uint8",
          "name": "",
          "type": "uint8"
        }
      ],
      "stateMutability": "view",
      "type": "function"
    },
    {
      "inputs": [
        {
          "internalType": "address",
          "name": "token",
          "type": "address"
        }
      ],
      "name": "getTokenPrice",
      "outputs": [
        {
          "internalType": "uint256",
          "name": "price",
          "type": "uint256"
        },
        {
          "internalType": "uint256",
          "name": "timestamp",
          "type": "uint256"
        }
      ],
      "stateMutability": "view",
      "type": "function"
    },
    {
      "inputs": [
        {
          "internalType": "address",
          "name": "token",
          "type": "address"
        }
      ],
      "name": "getTokenPriceDecimals",
      "outputs": [
        {
          "internalType": "uint8",
          "name": "",
          "type": "uint8"
        }
      ],
      "stateMutability": "view",
      "type": "function"
    },
    {
      "inputs": [
        {
          "internalType": "address",
          "name": "",
          "type": "address"
        }
      ],
      "name": "hasPriceFeed",
      "outputs": [
        {
          "internalType": "bool",
          "name": "",
          "type": "bool"
        }
      ],
      "stateMutability": "view",
      "type": "function"
    },
    {
      "inputs": [],
      "name": "owner",
      "outputs": [
        {
          "internalType": "address",
          "name": "",
          "type": "address"
        }
      ],
      "stateMutability": "view",
      "type": "function"
    },
    {
      "inputs": [
        {
          "internalType": "address",
          "name": "",
          "type": "address"
        }
      ],
      "name": "priceFeeds",
      "outputs": [
        {
          "internalType": "contract AggregatorV3Interface",
          "name": "",
          "type": "address"
        }
      ],
      "stateMutability": "view",
      "type": "function"
    },
    {
      "inputs": [
        {
          "internalType": "address",
          "name": "token",
          "type": "address"
        }
      ],
      "name": "removePriceFeed",
      "outputs": [],
      "stateMutability": "nonpayable",
      "type": "function"
    },
    {
      "inputs": [],
      "name": "renounceOwnership",
      "outputs": [],
      "stateMutability": "nonpayable",
      "type": "function"
    },
    {
      "inputs": [
        {
          "internalType": "address",
          "name": "_ethUsdPriceFeed",
          "type": "address"
        }
      ],
      "name": "setEthUsdPriceFeed",
      "outputs": [],
      "stateMutability": "nonpayable",
      "type": "function"
    },
    {
      "inputs": [
        {
          "internalType": "address",
          "name": "token",
          "type": "address"
        },
        {
          "internalType": "uint256",
          "name": "tokenAmount",
          "type": "uint256"
        },
        {
          "internalType": "uint8",
          "name": "tokenDecimals",
          "type": "uint8"
        }
      ],
      "name": "tokenToUsd",
      "outputs": [
        {
          "internalType": "uint256",
          "name": "usdValue",
          "type": "uint256"
        }
      ],
      "stateMutability": "view",
      "type": "function"
    },
    {
      "inputs": [
        {
          "internalType": "address",
          "name": "newOwner",
          "type": "address"
        }
      ],
      "name": "transferOwnership",
      "outputs": [],
      "stateMutability": "nonpayable",
      "type": "function"
    },
    {
      "inputs": [
        {
          "internalType": "uint256",
          "name": "usdValue",
          "type": "uint256"
        }
      ],
      "name": "usdToEth",
      "outputs": [
        {
          "internalType": "uint256",
          "name": "ethAmount",
          "type": "uint256"
        }
      ],
      "stateMutability": "view",
      "type": "function"
    },
    {
      "inputs": [
        {
          "internalType": "address",
          "name": "token",
          "type": "address"
        },
        {
          "internalType": "uint256",
          "name": "usdValue",
          "type": "uint256"
        },
        {
          "internalType": "uint8",
          "name": "tokenDecimals",
          "type": "uint8"
        }
      ],
      "name": "usdToToken",
      "outputs": [
        {
          "internalType": "uint256",
          "name": "tokenAmount",
          "type": "uint256"
        }
      ],
      "stateMutability": "view",
      "type": "function"
    }
  ],
  "bytecode": "0x60803461015a57601f610f2838819003918201601f19168301916001600160401b0383118484101761015e5780849260209460405283398101031261015a57516001600160a01b0381169081900361015a573315610147575f8054336001600160a01b03198216811783556040519290916001600160a01b0316907f8be0079c531659141344cd1fd0a4f28419497f9722a3daafe3b4186f6b6457e09080a381156100eb5750600380546001600160a01b03191682179055604051907fcc07d0b585abd117a938f6438404e39ba2df96e6a7a9c995202669910515d3c75f80a2610db590816101738239f35b62461bcd60e51b815260206004820152603160248201527fe4bbb7e6a0bce9a284e8a880e69cbaefbc9ae697a0e69588e79a844554482f5560448201527029a2725ddbf3505e74d142745440734e5d60791b6064820152608490fd5b631e4fbdf760e01b5f525f60045260245ffd5b5f80fd5b634e487b7160e01b5f52604160045260245ffdfe6080806040526004361015610012575f80fd5b5f3560e01c9081630b7983a2146107e357508063122aecd01461077f5780632d5566a8146107485780632f6ee6951461072d5780633b21a69f146106ad578063412e6e041461067a57806342f6fb291461065257806367c9b017146106385780636ffaefa4146105ae578063715018a6146105575780638da5cb5b1461053057806392cd1ff214610515578063946d1480146104dc5780639dcb511a1461049c578063bcecf6671461045c578063d02641a01461042d578063e293dcbf1461036d578063e8a97a3e14610218578063f2fde38b146101935763fceb0024146100f8575f80fd5b3461018f57602036600319011261018f5761011161081c565b610119610d59565b6001600160a01b03165f8181526002602052604090205461013c9060ff1661096a565b5f81815260016020908152604080832080546001600160a01b031916905560029091528120805460ff191690557ffd58461c4683df397133c7e91fe2aa71559919b405f9e09c9c3af7e875f54e3b9080a2005b5f80fd5b3461018f57602036600319011261018f576101ac61081c565b6101b4610d59565b6001600160a01b03168015610205575f80546001600160a01b03198116831782556001600160a01b0316907f8be0079c531659141344cd1fd0a4f28419497f9722a3daafe3b4186f6b6457e09080a3005b631e4fbdf760e01b5f525f60045260245ffd5b3461018f57604036600319011261018f5761023161081c565b610239610832565b90610242610d59565b6001600160a01b0316908115610318576001600160a01b03169081156102ba575f81815260016020818152604080842080546001600160a01b0319168717905560029091528220805460ff191690911790557f2940c4bfb544a4b0a5b4262767947b0acc0b8f144197528463c4d476658cff799080a3005b60405162461bcd60e51b815260206004820152603060248201527fe4bbb7e6a0bce9a284e8a880e69cbaefbc9ae697a0e69588e79a84e4bbb7e6a060448201526f0179d34509d15101cd3975cb3961cb3b60871b6064820152608490fd5b60405162461bcd60e51b815260206004820152602760248201527fe4bbb7e6a0bce9a284e8a880e69cbaefbc9ae697a0e69588e79a84e4bba3e5b86044820152660103cb3961cb3b60cf1b6064820152608490fd5b3461018f57602036600319011261018f5761038661081c565b61038e610d59565b6001600160a01b031680156103d557600380546001600160a01b031916821790557fcc07d0b585abd117a938f6438404e39ba2df96e6a7a9c995202669910515d3c75f80a2005b60405162461bcd60e51b815260206004820152602a60248201527fe4bbb7e6a0bce9a284e8a880e69cbaefbc9ae697a0e69588e79a84e4bbb7e6a06044820152695e74d142745440734e5d60b11b6064820152608490fd5b3461018f57602036600319011261018f57604061045061044b61081c565b610c02565b82519182526020820152f35b3461018f57602036600319011261018f57602061049461047a610aca565b5061048f670de0b6b3a7640000600435610914565b61094c565b604051908152f35b3461018f57602036600319011261018f576001600160a01b036104bd61081c565b165f526001602052602060018060a01b0360405f205416604051908152f35b3461018f57602036600319011261018f5760206104946105066104fd610aca565b50600435610914565b670de0b6b3a76400009061094c565b3461018f575f36600319011261018f57602060405160128152f35b3461018f575f36600319011261018f575f546040516001600160a01b039091168152602090f35b3461018f575f36600319011261018f5761056f610d59565b5f80546001600160a01b0319811682556001600160a01b03167f8be0079c531659141344cd1fd0a4f28419497f9722a3daafe3b4186f6b6457e08280a3005b3461018f575f36600319011261018f5760035460405163313ce56760e01b815290602090829060049082906001600160a01b03165afa801561062d576020915f91610600575b5060ff60405191168152f35b6106209150823d8411610626575b61061881836109cc565b810190610a02565b826105f4565b503d61060e565b6040513d5f823e3d90fd5b3461018f575f36600319011261018f576040610450610aca565b3461018f575f36600319011261018f576003546040516001600160a01b039091168152602090f35b3461018f5760206104946106a761048f6106a061069636610848565b9491929092610c02565b509361093b565b90610914565b3461018f57602036600319011261018f576001600160a01b036106ce61081c565b16805f5260026020526106e760ff60405f20541661096a565b5f5260016020526004602060018060a01b0360405f2054166040519283809263313ce56760e01b82525afa801561062d576020915f91610600575060ff60405191168152f35b3461018f575f36600319011261018f57602060405160088152f35b3461018f57602061049461076c61077961077361076436610848565b949091610c02565b5090610914565b9161093b565b9061094c565b3461018f5760c036600319011261018f57610798610832565b60443560ff8116810361018f576084356001600160a01b038116810361018f5760a4359060ff8216820361018f576020936107d9936064359160043561087c565b604051905f0b8152f35b3461018f57602036600319011261018f576020906001600160a01b0361080761081c565b165f526002825260ff60405f20541615158152f35b600435906001600160a01b038216820361018f57565b602435906001600160a01b038216820361018f57565b606090600319011261018f576004356001600160a01b038116810361018f57906024359060443560ff8116810361018f5790565b9394929391906001600160a01b0381166108fb5750506105066108a19161076c610aca565b925b6001600160a01b0381166108e25750506105066108c29161076c610aca565b905b818111156108d3575050600190565b10156108de575f1990565b5f90565b6107736108f59361076c61077993610c02565b906108c4565b61077361090e9361076c61077993610c02565b926108a3565b8181029291811591840414171561092757565b634e487b7160e01b5f52601160045260245ffd5b60ff16604d811161092757600a0a90565b8115610956570490565b634e487b7160e01b5f52601260045260245ffd5b1561097157565b60405162461bcd60e51b815260206004820152602d60248201527fe4bbb7e6a0bce9a284e8a880e69cbaefbc9ae4bba3e5b881e6b2a1e69c89e4bb60448201526c5bf3505e74d142745440734e5d60991b6064820152608490fd5b90601f8019910116810190811067ffffffffffffffff8211176109ee57604052565b634e487b7160e01b5f52604160045260245ffd5b9081602091031261018f575160ff8116810361018f5790565b519069ffffffffffffffffffff8216820361018f57565b908160a091031261018f57610a4681610a1b565b91602082015191604081015191610a64608060608401519301610a1b565b90565b15610a6e57565b60405162461bcd60e51b815260206004820152602160248201527fe4bbb7e6a0bce9a284e8a880e69cbaefbc9ae8bdaee6aca1e4b88de5ae8ce6956044820152602d60fa1b6064820152608490fd5b9190820391821161092757565b600354604051633fabe5a360e21b8152919060a090839060049082906001600160a01b03165afa91821561062d575f905f93610bcb575b505f811315610b7a57610b15831515610a67565b610e10610b228442610abd565b11610b2b579190565b60405162461bcd60e51b815260206004820152602160248201527fe4bbb7e6a0bce9a284e8a880e69cbaefbc9a455448e4bbb7e6a0bce8bf87e69c6044820152609f60f81b6064820152608490fd5b60405162461bcd60e51b8152602060048201526024808201527fe4bbb7e6a0bce9a284e8a880e69cbaefbc9ae697a0e69588e79a84455448e4bb6044820152632df9a82f60e21b6064820152608490fd5b9050610bf091925060a03d60a011610bfb575b610be881836109cc565b810190610a32565b50939250505f610b01565b503d610bde565b6001600160a01b03165f818152600260205260409020546004929190610c2a9060ff1661096a565b5f52600160205260a0600180821b0360405f20541660405193848092633fabe5a360e21b82525afa91821561062d575f905f93610d32575b505f811315610cdd57610c76831515610a67565b610e10610c838442610abd565b11610c8c579190565b60405162461bcd60e51b8152602060048201526024808201527fe4bbb7e6a0bce9a284e8a880e69cbaefbc9ae4bba3e5b881e4bbb7e6a0bce8bf60448201526387e69c9f60e01b6064820152608490fd5b60405162461bcd60e51b815260206004820152602760248201527fe4bbb7e6a0bce9a284e8a880e69cbaefbc9ae697a0e69588e79a84e4bba3e5b860448201526620792eedf9a82f60ca1b6064820152608490fd5b9050610d4e91925060a03d60a011610bfb57610be881836109cc565b50939250505f610c62565b5f546001600160a01b03163303610d6c57565b63118cdaa760e01b5f523360045260245ffdfea2646970667358221220cb123008448863d3866a36f11ad008677363ad5372ff294964dcad81cabc82ea64736f6c634300081c0033",
  "linkReferences": {},
  "deployedLinkReferences": {},
  "immutableReferences": {},
  "inputSourceName": "project/contracts/PriceOracle.sol",
  "buildInfoId": "solc-0_8_28-ea0a1c12020fd4f46a5393cd2391e7cd1d2bee12"
}