{
  "_format": "hh3-artifact-1",
  "contractName": "NFT",
  "sourceName": "contracts/NFT.sol",
  "abi": [
    {
      "inputs": [
        {
          "internalType": "string",
          "name": "name",
          "type": "string"
        },
        {
          "internalType": "string",
          "name": "symbol",
          "type": "string"
        },
        {
          "internalType": "string",
          "name": "baseURI",
          "type": "string"
        }
      ],
      "stateMutability": "nonpayable",
      "type": "constructor"
    },
    {
      "inputs": [],
      "name": "ERC721EnumerableForbiddenBatchMint",
      "type": "error"
    },
    {
      "inputs": [
        {
          "internalType": "address",
          "name": "sender",
          "type": "address"
        },
        {
          "internalType": "uint256",
          "name": "tokenId",
          "type": "uint256"
        },
        {
          "internalType": "address",
          "name": "owner",
          "type": "address"
        }
      ],
      "name": "ERC721IncorrectOwner",
      "type": "error"
    },
    {
      "inputs": [
        {
          "internalType": "address",
          "name": "operator",
          "type": "address"
        },
        {
          "internalType": "uint256",
          "name": "tokenId",
          "type": "uint256"
        }
      ],
      "name": "ERC721InsufficientApproval",
      "type": "error"
    },
    {
      "inputs": [
        {
          "internalType": "address",
          "name": "approver",
          "type": "address"
        }
      ],
      "name": "ERC721InvalidApprover",
      "type": "error"
    },
    {
      "inputs": [
        {
          "internalType": "address",
          "name": "operator",
          "type": "address"
        }
      ],
      "name": "ERC721InvalidOperator",
      "type": "error"
    },
    {
      "inputs": [
        {
          "internalType": "address",
          "name": "owner",
          "type": "address"
        }
      ],
      "name": "ERC721InvalidOwner",
      "type": "error"
    },
    {
      "inputs": [
        {
          "internalType": "address",
          "name": "receiver",
          "type": "address"
        }
      ],
      "name": "ERC721InvalidReceiver",
      "type": "error"
    },
    {
      "inputs": [
        {
          "internalType": "address",
          "name": "sender",
          "type": "address"
        }
      ],
      "name": "ERC721InvalidSender",
      "type": "error"
    },
    {
      "inputs": [
        {
          "internalType": "uint256",
          "name": "tokenId",
          "type": "uint256"
        }
      ],
      "name": "ERC721NonexistentToken",
      "type": "error"
    },
    {
      "inputs": [
        {
          "internalType": "address",
          "name": "owner",
          "type": "address"
        },
        {
          "internalType": "uint256",
          "name": "index",
          "type": "uint256"
        }
      ],
      "name": "ERC721OutOfBoundsIndex",
      "type": "error"
    },
    {
      "inputs": [
        {
          "internalType": "address",
          "name": "owner",
          "type": "address"
        }
      ],
      "name": "OwnableInvalidOwner",
      "type": "error"
    },
    {
      "inputs": [
        {
          "internalType": "address",
          "name": "account",
          "type": "address"
        }
      ],
      "name": "OwnableUnauthorizedAccount",
      "type": "error"
    },
    {
      "anonymous": false,
      "inputs": [
        {
          "indexed": true,
          "internalType": "address",
          "name": "owner",
          "type": "address"
        },
        {
          "indexed": true,
          "internalType": "address",
          "name": "approved",
          "type": "address"
        },
        {
          "indexed": true,
          "internalType": "uint256",
          "name": "tokenId",
          "type": "uint256"
        }
      ],
      "name": "Approval",
      "type": "event"
    },
    {
      "anonymous": false,
      "inputs": [
        {
          "indexed": true,
          "internalType": "address",
          "name": "owner",
          "type": "address"
        },
        {
          "indexed": true,
          "internalType": "address",
          "name": "operator",
          "type": "address"
        },
        {
          "indexed": false,
          "internalType": "bool",
          "name": "approved",
          "type": "bool"
        }
      ],
      "name": "ApprovalForAll",
      "type": "event"
    },
    {
      "anonymous": false,
      "inputs": [
        {
          "indexed": false,
          "internalType": "uint256",
          "name": "_fromTokenId",
          "type": "uint256"
        },
        {
          "indexed": false,
          "internalType": "uint256",
          "name": "_toTokenId",
          "type": "uint256"
        }
      ],
      "name": "BatchMetadataUpdate",
      "type": "event"
    },
    {
      "anonymous": false,
      "inputs": [
        {
          "indexed": false,
          "internalType": "uint256",
          "name": "_tokenId",
          "type": "uint256"
        }
      ],
      "name": "MetadataUpdate",
      "type": "event"
    },
    {
      "anonymous": false,
      "inputs": [
        {
          "indexed": true,
          "internalType": "address",
          "name": "previousOwner",
          "type": "address"
        },
        {
          "indexed": true,
          "internalType": "address",
          "name": "newOwner",
          "type": "address"
        }
      ],
      "name": "OwnershipTransferred",
      "type": "event"
    },
    {
      "anonymous": false,
      "inputs": [
        {
          "indexed": true,
          "internalType": "address",
          "name": "to",
          "type": "address"
        },
        {
          "indexed": true,
          "internalType": "uint256",
          "name": "tokenId",
          "type": "uint256"
        },
        {
          "indexed": false,
          "internalType": "string",
          "name": "uri",
          "type": "string"
        }
      ],
      "name": "TokenMinted",
      "type": "event"
    },
    {
      "anonymous": false,
      "inputs": [
        {
          "indexed": true,
          "internalType": "address",
          "name": "from",
          "type": "address"
        },
        {
          "indexed": true,
          "internalType": "address",
          "name": "to",
          "type": "address"
        },
        {
          "indexed": true,
          "internalType": "uint256",
          "name": "tokenId",
          "type": "uint256"
        }
      ],
      "name": "Transfer",
      "type": "event"
    },
    {
      "anonymous": false,
      "inputs": [
        {
          "indexed": true,
          "internalType": "uint256",
          "name": "tokenId",
          "type": "uint256"
        }
      ],
      "name": "URIFrozen",
      "type": "event"
    },
    {
      "inputs": [
        {
          "internalType": "address",
          "name": "to",
          "type": "address"
        },
        {
          "internalType": "uint256",
          "name": "tokenId",
          "type": "uint256"
        }
      ],
      "name": "approve",
      "outputs": [],
      "stateMutability": "nonpayable",
      "type": "function"
    },
    {
      "inputs": [
        {
          "internalType": "address",
          "name": "owner",
          "type": "address"
        }
      ],
      "name": "balanceOf",
      "outputs": [
        {
          "internalType": "uint256",
          "name": "",
          "type": "uint256"
        }
      ],
      "stateMutability": "view",
      "type": "function"
    },
    {
      "inputs": [
        {
          "internalType": "address",
          "name": "to",
          "type": "address"
        },
        {
          "internalType": "string[]",
          "name": "uris",
          "type": "string[]"
        }
      ],
      "name": "batchMint",
      "outputs": [
        {
          "internalType": "uint256[]",
          "name": "",
          "type": "uint256[]"
        }
      ],
      "stateMutability": "nonpayable",
      "type": "function"
    },
    {
      "inputs": [
        {
          "internalType": "uint256",
          "name": "tokenId",
          "type": "uint256"
        }
      ],
      "name": "exists",
      "outputs": [
        {
          "internalType": "bool",
          "name": "",
          "type": "bool"
        }
      ],
      "stateMutability": "view",
      "type": "function"
    },
    {
      "inputs": [
        {
          "internalType": "uint256",
          "name": "tokenId",
          "type": "uint256"
        }
      ],
      "name": "getApproved",
      "outputs": [
        {
          "internalType": "address",
          "name": "",
          "type": "address"
        }
      ],
      "stateMutability": "view",
      "type": "function"
    },
    {
      "inputs": [
        {
          "internalType": "address",
          "name": "owner",
          "type": "address"
        }
      ],
      "name": "getTokensByOwner",
      "outputs": [
        {
          "internalType": "uint256[]",
          "name": "",
          "type": "uint256[]"
        }
      ],
      "stateMutability": "view",
      "type": "function"
    },
    {
      "inputs": [
        {
          "internalType": "address",
          "name": "owner",
          "type": "address"
        },
        {
          "internalType": "address",
          "name": "operator",
          "type": "address"
        }
      ],
      "name": "isApprovedForAll",
      "outputs": [
        {
          "internalType": "bool",
          "name": "",
          "type": "bool"
        }
      ],
      "stateMutability": "view",
      "type": "function"
    },
    {
      "inputs": [
        {
          "internalType": "address",
          "name": "to",
          "type": "address"
        },
        {
          "internalType": "string",
          "name": "uri",
          "type": "string"
        }
      ],
      "name": "mint",
      "outputs": [
        {
          "internalType": "uint256",
          "name": "",
          "type": "uint256"
        }
      ],
      "stateMutability": "nonpayable",
      "type": "function"
    },
    {
      "inputs": [],
      "name": "name",
      "outputs": [
        {
          "internalType": "string",
          "name": "",
          "type": "string"
        }
      ],
      "stateMutability": "view",
      "type": "function"
    },
    {
      "inputs": [],
      "name": "owner",
      "outputs": [
        {
          "internalType": "address",
          "name": "",
          "type": "address"
        }
      ],
      "stateMutability": "view",
      "type": "function"
    },
    {
      "inputs": [
        {
          "internalType": "uint256",
          "name": "tokenId",
          "type": "uint256"
        }
      ],
      "name": "ownerOf",
      "outputs": [
        {
          "internalType": "address",
          "name": "",
          "type": "address"
        }
      ],
      "stateMutability": "view",
      "type": "function"
    },
    {
      "inputs": [],
      "name": "renounceOwnership",
      "outputs": [],
      "stateMutability": "nonpayable",
      "type": "function"
    },
    {
      "inputs": [
        {
          "internalType": "address",
          "name": "from",
          "type": "address"
        },
        {
          "internalType": "address",
          "name": "to",
          "type": "address"
        },
        {
          "internalType": "uint256",
          "name": "tokenId",
          "type": "uint256"
        }
      ],
      "name": "safeTransferFrom",
      "outputs": [],
      "stateMutability": "nonpayable",
      "type": "function"
    },
    {
      "inputs": [
        {
          "internalType": "address",
          "name": "from",
          "type": "address"
        },
        {
          "internalType": "address",
          "name": "to",
          "type": "address"
        },
        {
          "internalType": "uint256",
          "name": "tokenId",
          "type": "uint256"
        },
        {
          "internalType": "bytes",
          "name": "data",
          "type": "bytes"
        }
      ],
      "name": "safeTransferFrom",
      "outputs": [],
      "stateMutability": "nonpayable",
      "type": "function"
    },
    {
      "inputs": [
        {
          "internalType": "address",
          "name": "operator",
          "type": "address"
        },
        {
          "internalType": "bool",
          "name": "approved",
          "type": "bool"
        }
      ],
      "name": "setApprovalForAll",
      "outputs": [],
      "stateMutability": "nonpayable",
      "type": "function"
    },
    {
      "inputs": [
        {
          "internalType": "string",
          "name": "baseURI",
          "type": "string"
        }
      ],
      "name": "setBaseURI",
      "outputs": [],
      "stateMutability": "nonpayable",
      "type": "function"
    },
    {
      "inputs": [
        {
          "internalType": "bytes4",
          "name": "interfaceId",
          "type": "bytes4"
        }
      ],
      "name": "supportsInterface",
      "outputs": [
        {
          "internalType": "bool",
          "name": "",
          "type": "bool"
        }
      ],
      "stateMutability": "view",
      "type": "function"
    },
    {
      "inputs": [],
      "name": "symbol",
      "outputs": [
        {
          "internalType": "string",
          "name": "",
          "type": "string"
        }
      ],
      "stateMutability": "view",
      "type": "function"
    },
    {
      "inputs": [
        {
          "internalType": "uint256",
          "name": "index",
          "type": "uint256"
        }
      ],
      "name": "tokenByIndex",
      "outputs": [
        {
          "internalType": "uint256",
          "name": "",
          "type": "uint256"
        }
      ],
      "stateMutability": "view",
      "type": "function"
    },
    {
      "inputs": [
        {
          "internalType": "address",
          "name": "owner",
          "type": "address"
        },
        {
          "internalType": "uint256",
          "name": "index",
          "type": "uint256"
        }
      ],
      "name": "tokenOfOwnerByIndex",
      "outputs": [
        {
          "internalType": "uint256",
          "name": "",
          "type": "uint256"
        }
      ],
      "stateMutability": "view",
      "type": "function"
    },
    {
      "inputs": [
        {
          "internalType": "uint256",
          "name": "tokenId",
          "type": "uint256"
        }
      ],
      "name": "tokenURI",
      "outputs": [
        {
          "internalType": "string",
          "name": "",
          "type": "string"
        }
      ],
      "stateMutability": "view",
      "type": "function"
    },
    {
      "inputs": [],
      "name": "totalMinted",
      "outputs": [
        {
          "internalType": "uint256",
          "name": "",
          "type": "uint256"
        }
      ],
      "stateMutability": "view",
      "type": "function"
    },
    {
      "inputs": [],
      "name": "totalSupply",
      "outputs": [
        {
          "internalType": "uint256",
          "name": "",
          "type": "uint256"
        }
      ],
      "stateMutability": "view",
      "type": "function"
    },
    {
      "inputs": [
        {
          "internalType": "address",
          "name": "from",
          "type": "address"
        },
        {
          "internalType": "address",
          "name": "to",
          "type": "address"
        },
        {
          "internalType": "uint256",
          "name": "tokenId",
          "type": "uint256"
        }
      ],
      "name": "transferFrom",
      "outputs": [],
      "stateMutability": "nonpayable",
      "type": "function"
    },
    {
      "inputs": [
        {
          "internalType": "address",
          "name": "newOwner",
          "type": "address"
        }
      ],
      "name": "transferOwnership",
      "outputs": [],
      "stateMutability": "nonpayable",
      "type": "function"
    }
  ],
  "bytecode": "0x6080604052346104c3576121cd80380380610019816104c7565b92833981016060828203126104c35781516001600160401b0381116104c357816100449184016104ec565b60208301519092906001600160401b0381116104c357826100669183016104ec565b60408201519092906001600160401b0381116104c35761008692016104ec565b82516001600160401b0381116102eb575f54600181811c911680156104b9575b60208210146102cd57601f8111610457575b506020601f82116001146103f657819293945f926103eb575b50508160011b915f199060031b1c1916175f555b81516001600160401b0381116102eb57600154600181811c911680156103e1575b60208210146102cd57601f811161037e575b50602092601f821160011461031d57928192935f92610312575b50508160011b915f199060031b1c1916176001555b33156102ff57600b8054336001600160a01b0319821681179092556001600160a01b03167f8be0079c531659141344cd1fd0a4f28419497f9722a3daafe3b4186f6b6457e05f80a380516001600160401b0381116102eb57600d54600181811c911680156102e1575b60208210146102cd57601f811161026a575b50602091601f821160011461020a579181925f926101ff575b50508160011b915f199060031b1c191617600d555b604051611c8f908161053e8239f35b015190505f806101db565b601f19821692600d5f52805f20915f5b8581106102525750836001951061023a575b505050811b01600d556101f0565b01515f1960f88460031b161c191690555f808061022c565b9192602060018192868501518155019401920161021a565b600d5f527fd7b6990105719101dabeb77144f2a3385c8033acd3af97e9423a695e81ad1eb5601f830160051c810191602084106102c3575b601f0160051c01905b8181106102b857506101c2565b5f81556001016102ab565b90915081906102a2565b634e487b7160e01b5f52602260045260245ffd5b90607f16906101b0565b634e487b7160e01b5f52604160045260245ffd5b631e4fbdf760e01b5f525f60045260245ffd5b015190505f80610132565b601f1982169360015f52805f20915f5b868110610366575083600195961061034e575b505050811b01600155610147565b01515f1960f88460031b161c191690555f8080610340565b9192602060018192868501518155019401920161032d565b60015f527fb10e2d527612073b26eecdfd717e6a320cf44b4afac2b0732d9fcbe2b7fa0cf6601f830160051c810191602084106103d7575b601f0160051c01905b8181106103cc5750610118565b5f81556001016103bf565b90915081906103b6565b90607f1690610106565b015190505f806100d1565b601f198216905f8052805f20915f5b81811061043f57509583600195969710610427575b505050811b015f556100e5565b01515f1960f88460031b161c191690555f808061041a565b9192602060018192868b015181550194019201610405565b5f80527f290decd9548b62a8d60345a988386fc84ba6bc95484008f6362f93160ef3e563601f830160051c810191602084106104af575b601f0160051c01905b8181106104a457506100b8565b5f8155600101610497565b909150819061048e565b90607f16906100a6565b5f80fd5b6040519190601f01601f191682016001600160401b038111838210176102eb57604052565b81601f820112156104c3578051906001600160401b0382116102eb5761051b601f8301601f19166020016104c7565b92828452602083830101116104c357815f9260208093018386015e830101529056fe6080806040526004361015610012575f80fd5b5f3560e01c90816301ffc9a714610c995750806306fdde0314610bf7578063081812fc14610bbb578063095ea7b314610ad157806318160ddd14610ab457806323b872dd14610a9d5780632f745c5914610a7657806340398d6714610a1557806342842e0e146109e65780634f558e79146109b25780634f6ccce71461096457806355f804b3146107e65780636352211e146107b657806370a082311461078b578063715018a6146107305780638da5cb5b1461070857806395d89b411461063e578063a22cb4651461058a578063a2309ff81461056d578063b88d4fde146104ff578063c87b56dd146104cc578063d0def52114610412578063e985e9c5146103bb578063f2f18baa146101b95763f2fde38b1461012f575f80fd5b346101b55760203660031901126101b557610148610d5c565b6101506113c7565b6001600160a01b031680156101a257600b80546001600160a01b0319811683179091556001600160a01b03167f8be0079c531659141344cd1fd0a4f28419497f9722a3daafe3b4186f6b6457e05f80a3005b631e4fbdf760e01b5f525f60045260245ffd5b5f80fd5b346101b55760403660031901126101b5576101d2610d5c565b6024359067ffffffffffffffff82116101b557366023830112156101b55781600401356101fe81610e8d565b9261020c6040519485610dfb565b8184526024602085019260051b820101903682116101b55760248101925b82841061038b5785856001600160a01b038116610248811515611339565b82511561034e576032835111610309576102628351611296565b925f5b81518110156102f757600190600c5461027d81611385565b600c5561028a81876117e7565b61029e61029783866112c8565b5182611ad2565b806102a983896112c8565b52847fdf92894dc4675a7333caa5903b69cf5d8e8ec0d3f361c88207b6688e525703bb6102ee6102d985886112c8565b51604051918291602083526020830190610d38565b0390a301610265565b604051806103058782610dc2565b0390f35b60405162461bcd60e51b815260206004820152601960248201527f4e46543a2062617463682073697a6520746f6f206c61726765000000000000006044820152606490fd5b60405162461bcd60e51b81526020600482015260156024820152744e46543a20656d707479205552497320617272617960581b6044820152606490fd5b833567ffffffffffffffff81116101b5576020916103b0839260243691870101610e6f565b81520193019261022a565b346101b55760403660031901126101b5576103d4610d5c565b6103dc610d72565b9060018060a01b03165f52600560205260405f209060018060a01b03165f52602052602060ff60405f2054166040519015158152f35b346101b55760403660031901126101b55761042b610d5c565b60243567ffffffffffffffff81116101b5576020916104516104a5923690600401610e6f565b6001600160a01b038216907fdf92894dc4675a7333caa5903b69cf5d8e8ec0d3f361c88207b6688e525703bb906104c19061048d841515611339565b600c549586809661049d82611385565b600c556117e7565b6104af8186611ad2565b60405191829188835288830190610d38565b0390a3604051908152f35b346101b55760203660031901126101b5576103056104eb600435611562565b604051918291602083526020830190610d38565b346101b55760803660031901126101b557610518610d5c565b610520610d72565b906044356064359267ffffffffffffffff84116101b557366023850112156101b55761055961056b943690602481600401359101610e39565b92610565838383610f81565b336113ee565b005b346101b5575f3660031901126101b5576020600c54604051908152f35b346101b55760403660031901126101b5576105a3610d5c565b602435908115158092036101b557331561062b576001600160a01b031690811561061857335f52600560205260405f20825f5260205260405f2060ff1981541660ff83161790556040519081527f17307eab39ab6107e8899845ad3d59bd9653f200f220920489ca2b5937696c3160203392a3005b50630b61174360e31b5f5260045260245ffd5b63a9fbf51f60e01b5f525f60045260245ffd5b346101b5575f3660031901126101b5576040515f60015461065e81610ea5565b80845290600181169081156106e45750600114610686575b610305836104eb81850382610dfb565b60015f9081527fb10e2d527612073b26eecdfd717e6a320cf44b4afac2b0732d9fcbe2b7fa0cf6939250905b8082106106ca575090915081016020016104eb610676565b9192600181602092548385880101520191019092916106b2565b60ff191660208086019190915291151560051b840190910191506104eb9050610676565b346101b5575f3660031901126101b557600b546040516001600160a01b039091168152602090f35b346101b5575f3660031901126101b5576107486113c7565b600b80546001600160a01b031981169091555f906001600160a01b03167f8be0079c531659141344cd1fd0a4f28419497f9722a3daafe3b4186f6b6457e08280a3005b346101b55760203660031901126101b55760206107ae6107a9610d5c565b611308565b604051908152f35b346101b55760203660031901126101b55760206107d4600435611393565b6040516001600160a01b039091168152f35b346101b55760203660031901126101b55760043567ffffffffffffffff81116101b557610817903690600401610e6f565b61081f6113c7565b805167ffffffffffffffff81116109505761083b600d54610ea5565b601f81116108e8575b50602091601f8211600114610880579181925f92610875575b50505f19600383901b1c191660019190911b17600d55005b01519050828061085d565b601f19821692600d5f525f516020611c3a5f395f51905f52915f5b8581106108d0575083600195106108b8575b505050811b01600d55005b01515f1960f88460031b161c191690558280806108ad565b9192602060018192868501518155019401920161089b565b600d5f52601f820160051c5f516020611c3a5f395f51905f5201906020831061093b575b601f0160051c5f516020611c3a5f395f51905f5201905b8181106109305750610844565b5f8155600101610923565b5f516020611c3a5f395f51905f52915061090c565b634e487b7160e01b5f52604160045260245ffd5b346101b55760203660031901126101b55760043560085481101561099c5761098d6020916112f0565b90549060031b1c604051908152f35b63295f44f760e21b5f525f60045260245260445ffd5b346101b55760203660031901126101b5576004355f526002602052602060018060a01b0360405f2054161515604051908152f35b346101b55761056b6109f736610d88565b9060405192610a07602085610dfb565b5f8452610565838383610f81565b346101b55760203660031901126101b557610a2e610d5c565b610a3781611308565b610a4081611296565b915f5b828110610a5857604051806103058682610dc2565b80610a6560019284611248565b610a6f82876112c8565b5201610a43565b346101b55760403660031901126101b55760206107ae610a94610d5c565b60243590611248565b346101b55761056b610aae36610d88565b91610f81565b346101b5575f3660031901126101b5576020600854604051908152f35b346101b55760403660031901126101b557610aea610d5c565b602435610af681611393565b33151580610ba8575b80610b7b575b610b685781906001600160a01b0384811691167f8c5be1e5ebec7d5bd14f71427d1e84f3dd0314c0f7b2291e5b200ac8c7c3b9255f80a45f90815260046020526040902080546001600160a01b0319166001600160a01b03909216919091179055005b63a9fbf51f60e01b5f523360045260245ffd5b506001600160a01b0381165f90815260056020908152604080832033845290915290205460ff1615610b05565b506001600160a01b038116331415610aff565b346101b55760203660031901126101b557600435610bd881611393565b505f526004602052602060018060a01b0360405f205416604051908152f35b346101b5575f3660031901126101b5576040515f5f54610c1681610ea5565b80845290600181169081156106e45750600114610c3d57610305836104eb81850382610dfb565b5f8080527f290decd9548b62a8d60345a988386fc84ba6bc95484008f6362f93160ef3e563939250905b808210610c7f575090915081016020016104eb610676565b919260018160209254838588010152019101909291610c67565b346101b55760203660031901126101b5576004359063ffffffff60e01b82168092036101b557602091632483248360e11b8114908115610cdb575b5015158152f35b63780e9d6360e01b811491508115610cf5575b5083610cd4565b6380ac58cd60e01b811491508115610d27575b8115610d16575b5083610cee565b6301ffc9a760e01b14905083610d0f565b635b5e139f60e01b81149150610d08565b805180835260209291819084018484015e5f828201840152601f01601f1916010190565b600435906001600160a01b03821682036101b557565b602435906001600160a01b03821682036101b557565b60609060031901126101b5576004356001600160a01b03811681036101b557906024356001600160a01b03811681036101b5579060443590565b60206040818301928281528451809452019201905f5b818110610de55750505090565b8251845260209384019390920191600101610dd8565b90601f8019910116810190811067ffffffffffffffff82111761095057604052565b67ffffffffffffffff811161095057601f01601f191660200190565b929192610e4582610e1d565b91610e536040519384610dfb565b8294818452818301116101b5578281602093845f960137010152565b9080601f830112156101b557816020610e8a93359101610e39565b90565b67ffffffffffffffff81116109505760051b60200190565b90600182811c92168015610ed3575b6020831014610ebf57565b634e487b7160e01b5f52602260045260245ffd5b91607f1691610eb4565b604051905f82600d5491610ef083610ea5565b8083529260018116908115610f625750600114610f16575b610f1492500383610dfb565b565b50600d5f90815290915f516020611c3a5f395f51905f525b818310610f46575050906020610f1492820101610f08565b6020919350806001915483858901015201910190918492610f2e565b60209250610f1494915060ff191682840152151560051b820101610f08565b9091906001600160a01b0383168015611235575f838152600260205260409020546001600160a01b031693331515806111a5575b5084158015611172575b825f52600360205260405f2060018154019055845f52600260205260405f20836bffffffffffffffffffffffff60a01b8254161790558483877fddf252ad1be2c89b69c2b068fc378daa952ba7f163c4a11628f55a4df523b3ef5f80a4156110f557600854845f5260096020528060405f2055600160401b811015610950578461105282600161106a94016008556112f0565b90919082549060031b91821b915f19901b1916179055565b8185036110a1575b50506001600160a01b031680830361108957505050565b6364283d7b60e01b5f5260045260245260445260645ffd5b6110aa90611308565b5f198101919082116110e1575f52600660205260405f20815f526020528260405f2055825f52600760205260405f20555f80611072565b634e487b7160e01b5f52601160045260245ffd5b84821461106a5761110585611308565b845f52600760205260405f205490865f52600660205260405f2091818103611147575b50855f5260076020525f60408120555f526020525f604081205561106a565b815f528260205260405f2054815f52836020528060405f20555f52600760205260405f20555f611128565b5f85815260046020526040902080546001600160a01b0319169055855f52600360205260405f205f198154019055610fbf565b806111e4575b156111b6575f610fb5565b83856111ce57637e27328960e01b5f5260045260245ffd5b63177e802f60e01b5f523360045260245260445ffd5b503385148015611213575b806111ab57505f848152600460205260409020546001600160a01b031633146111ab565b505f85815260056020908152604080832033845290915290205460ff166111ef565b633250574960e11b5f525f60045260245ffd5b61125181611308565b8210156112795760018060a01b03165f52600660205260405f20905f5260205260405f205490565b63295f44f760e21b5f5260018060a01b031660045260245260445ffd5b906112a082610e8d565b6112ad6040519182610dfb565b82815280926112be601f1991610e8d565b0190602036910137565b80518210156112dc5760209160051b010190565b634e487b7160e01b5f52603260045260245ffd5b6008548110156112dc5760085f5260205f2001905f90565b6001600160a01b03168015611326575f52600360205260405f205490565b6322718ad960e21b5f525f60045260245ffd5b1561134057565b60405162461bcd60e51b815260206004820152601960248201527f4e46543a206d696e7420746f207a65726f2061646472657373000000000000006044820152606490fd5b5f1981146110e15760010190565b5f818152600260205260409020546001600160a01b03169081156113b5575090565b637e27328960e01b5f5260045260245ffd5b600b546001600160a01b031633036113db57565b63118cdaa760e01b5f523360045260245ffd5b823b6113fc575b5050505050565b604051630a85bd0160e11b81526001600160a01b039182166004820152918116602483015260448201939093526080606482015291169160209082908190611448906084830190610d38565b03815f865af15f91816114df575b506114ab57503d156114a4573d61146c81610e1d565b9061147a6040519283610dfb565b81523d5f602083013e5b8051908161149f5782633250574960e11b5f5260045260245ffd5b602001fd5b6060611484565b6001600160e01b03191663757a42ff60e11b016114cd57505f808080806113f5565b633250574960e11b5f5260045260245ffd5b9091506020813d60201161151c575b816114fb60209383610dfb565b810103126101b557516001600160e01b0319811681036101b557905f611456565b3d91506114ee565b610f14906020808095946040519684889551918291018487015e8401908282015f8152815193849201905e01015f815203601f198101845283610dfb565b61156b81611393565b50611574610edd565b815f52600a60205260405f209060405191825f82549261159384610ea5565b80845293600181169081156117c55750600114611781575b506115b892500383610dfb565b80511561177b5781516117715750506115d081611393565b506115d9610edd565b80519091901561175b5780815f9272184f03e93ff9f4daa797ed6e38ed64bf6a1f0160401b811015611735575b50806d04ee2d6d415b85acef8100000000600a92101561171a575b662386f26fc10000811015611706575b6305f5e1008110156116f5575b6127108110156116e6575b60648110156116d8575b10156116cd575b600a6021600184019361166c85610e1d565b9461167a6040519687610dfb565b808652611689601f1991610e1d565b013660208701378401015b5f1901916f181899199a1a9b1b9c1cb0b131b232b360811b8282061a8353049081156116c257600a90611694565b5050610e8a91611524565b60019091019061165a565b606460029104930192611653565b61271060049104930192611649565b6305f5e1006008910493019261163e565b662386f26fc1000060109104930192611631565b6d04ee2d6d415b85acef810000000060209104930192611621565b6040935072184f03e93ff9f4daa797ed6e38ed64bf6a1f0160401b90049050600a611606565b505060405161176b602082610dfb565b5f815290565b610e8a9250611524565b50905090565b90505f9291925260205f20905f915b8183106117a95750509060206115b8928201015f6115ab565b6020919350806001915483858901015201910190918492611790565b9050602092506115b894915060ff191682840152151560051b8201015f6115ab565b90602090604051906117f98383610dfb565b5f82526001600160a01b038416938415611235575f8281526002855260409020546001600160a01b031680158015919082611aa1575b875f526003875260405f2060018154019055845f526002875260405f20886bffffffffffffffffffffffff60a01b8254161790558488837fddf252ad1be2c89b69c2b068fc378daa952ba7f163c4a11628f55a4df523b3ef5f80a415611a2b57600854845f52600987528060405f2055600160401b81101561095057846110528260016118bf94016008556112f0565b8681036119f0575b506119dd573b6118d8575b50505050565b9161191591819495936040519384928392630a85bd0160e11b84523360048501525f60248501526044840152608060648401526084830190610d38565b03815f885af15f918161199d575b506119785750503d15611970573d9061193b82610e1d565b916119496040519384610dfb565b82523d5f8284013e5b8151918261196d5783633250574960e11b5f5260045260245ffd5b01fd5b606090611952565b909291506001600160e01b03191663757a42ff60e11b016114cd57505f8080806118d2565b9091508381813d83116119d6575b6119b58183610dfb565b810103126101b557516001600160e01b0319811681036101b557905f611923565b503d6119ab565b6339e3563760e11b5f525f60045260245ffd5b6119f983611308565b5f1981019081116110e157875f526006875260405f20815f5287528460405f2055845f526007875260405f20556118c7565b8087146118bf57611a3b81611308565b845f526007875260405f205490825f526006885260405f2091818103611a79575b50855f52600788525f60408120555f5286525f60408120556118bf565b815f5282895260405f2054815f52838a528060405f20555f526007895260405f20555f611a5c565b5f8581526004602052604080822080546001600160a01b031916905583825260038952902080545f1901905561182f565b919091805f52600a60205260405f20835167ffffffffffffffff811161095057611afc8254610ea5565b601f8111611bf4575b506020601f8211600114611b6c57908060209493927ff8e1a15aba9398e019f0b49df1a4fde98ee17ae345cb5f6b5e2c27f5033e8ce796975f92611b61575b50508160011b915f199060031b1c19161790555b604051908152a1565b015190505f80611b44565b601f19821695835f52815f20965f5b818110611bdc575096600192849260209796957ff8e1a15aba9398e019f0b49df1a4fde98ee17ae345cb5f6b5e2c27f5033e8ce7999a10611bc4575b505050811b019055611b58565b01515f1960f88460031b161c191690555f8080611bb7565b83830151895560019098019760209384019301611b7b565b825f5260205f20601f830160051c81019160208410611c2f575b601f0160051c01905b818110611c245750611b05565b5f8155600101611c17565b9091508190611c0e56fed7b6990105719101dabeb77144f2a3385c8033acd3af97e9423a695e81ad1eb5a2646970667358221220f5001ac656ca7ca2839ec67f86c4276773338a6bb6004bdbc705fa3fa8ecf17264736f6c634300081c0033",
  "linkReferences": {},
  "deployedLinkReferences": {},
  "immutableReferences": {},
  "inputSourceName": "project/contracts/NFT.sol",
  "buildInfoId": "solc-0_8_28-f7eee6a92947d274053bcb5a79b2b9fa25ea9338"
}